:100000000C9425010C9452030C947F030C94AC03C4
:100010000C94D9030C9442010C9442010C940604F4
:100020000C9442010C9442010C9488060C943F05F8
:100030000C9442010C9442010C9442010C94420134
:100040000C9442010C9442010C9442010C94420124
:100050000C9442010C9442010C9442010C946202F3
:100060000C9442010C9442010C9442010C94420104
:100070000C9442010C9442010C9442010C944201F4
:100080000C9442010C9442010C9442010C944201E4
:100090000C9442010C9442010C9442010C944201D4
:1000A0000C9442010C9442010C94420100000002A5
:1000B00000080E0000030401000B00000000000017
:1000C00000000000000000000000040802011040D1
:1000D00080401020408040800802040180402010B1
:1000E00002011080102040400404040404030405AD
:1000F00002020202040302020202060606060606C5
:1001000004040202020400000000250028002B0065
:100110002E00310000000000240027002A002D00DE
:100120003000080B00020202010009040000010275
:10013000020000052400100105240101010424022D
:10014000060524060001070581031000400904018B
:1001500000020A00000007050202400000070583B4
:10016000024000001803410072006400750069003D
:100170006E006F0020004C004C0043002203410041
:1001800072006400750069006E006F0020004C0072
:1001900065006F006E006100720064006F00120164
:1001A00000020200004041233680000101020001EC
:1001B00012010002000000404123368000010102CC
:1001C00000010403090400C18081C1090402000187
:1001D00003000000092101010001226500070584D8
:1001E0000340000105010902A1010901A1008501E7
:1001F00005091901290315002501950375018102DF
:10020000950175058103050109300931093815810A
:10021000257F750895038106C0C005010906A10167
:100220008502050719E029E71500250175019508E4
:1002300081029501750881039506750815002565ED
:100240000507190029658100C00011241FBECFEFEA
:10025000DAE0DEBFCDBF11E0A0E0B1E0EAE8FFE008
:1002600002C005900D92A432B107D9F711E0A4E2C3
:10027000B1E001C01D92A338B107E1F70E94330439
:100280000C94C3070C9400001F93CF93DF936AE094
:1002900070E00E94850780509F4FFC011081CAE1E9
:1002A000D1E02297612F617088810E942B02169500
:1002B000F1E0CA30DF07A9F7DF91CF911F910895D0
:1002C000CF93C5E061E08C2F0E94F301CF5FCE3069
:1002D000C9F761E083E0CF910C94F301FF920F9393
:1002E0001F93CF93DF9380E090E00E94AD07182F1B
:1002F0006AE00E947907F82E092FCCE3D0E060E095
:1003000085E00E942B028F2D90E00E94440168E05E
:1003100070E080E090E00E94D60261E085E00E94FB
:100320002B02802F90E00E94440168E070E080E0A2
:1003300090E00E94D602219711F7612F6F5F80E055
:1003400090E0DF91CF911F910F91FF900C94B50732
:10035000883059F160F4823021F120F4813009F0C5
:1003600041C01CC0833081F08430E1F511C08B3076
:1003700051F128F48930E9F08A30A1F51EC08C30A3
:1003800031F18E3079F529C0809180008F7703C0DC
:10039000809180008F7D80938000089584B58F7751
:1003A00002C084B58F7D84BD0895809190008F77C1
:1003B00007C0809190008F7D03C080919000877F5F
:1003C0008093900008958091C0008F7703C0809142
:1003D000C0008F7D8093C00008958091C200877F08
:1003E0008093C2000895CF93DF9390E0FC01E65321
:1003F000FF4F4491FC01E851FF4F8491882341F164
:1004000090E0880F991FFC01EC5EFE4F259134911E
:10041000D9018A5F9E4FFC0185919491C82FD92FF5
:100420009FB7F8948C91611106C0409584238C93FA
:100430008881842308C0623041F4242F20958223D0
:100440008C938881842B888302C0842B8C939FBFDC
:10045000DF91CF9108950F931F93CF93DF931F9256
:10046000CDB7DEB7282F30E0F901E455FF4F849176
:10047000F901E653FF4F1491F901E851FF4F049140
:100480000023D1F0882321F069830E94A8016981AB
:10049000E02FF0E0EE0FFF1FEA5FFE4F8591949191
:1004A000DC019FB7F8948C91611103C010958123F2
:1004B00001C0812B8C939FBF0F90DF91CF911F9133
:1004C0000F9108951F920F920FB60F9211242F9340
:1004D0003F938F939F93AF93BF938091240190910B
:1004E0002501A0912601B091270130912C01232FE5
:1004F0002D5F2D3720F40196A11DB11D05C0232FBE
:100500002A570296A11DB11D20932C01809324012E
:1005100090932501A0932601B09327018091280193
:1005200090912901A0912A01B0912B010196A11D62
:10053000B11D8093280190932901A0932A01B093C3
:100540002B01BF91AF919F918F913F912F910F9070
:100550000FBE0F901F9018950F931F939FB7F8949D
:10056000009128011091290120912A0130912B013D
:1005700086B5A89B06C08F3F21F00F5F1F4F2F4FFE
:100580003F4F9FBF322F212F102F0027080F111D23
:10059000211D311D42E0000F111F221F331F4A95FC
:1005A000D1F7B801C9011F910F910895CF92DF9241
:1005B000EF92FF92CF93DF936B017C010E94AC021C
:1005C000EB010EC00E94AC026C1B7D0B683E7340B9
:1005D00038F081E0C81AD108E108F108C851DC4FB1
:1005E000C114D104E104F10469F7DF91CF91FF90C8
:1005F000EF90DF90CF900895789484B5826084BDA9
:1006000084B5816084BD85B5826085BD85B5816016
:1006100085BDEEE6F0E0808181608083E1E8F0E076
:100620001082808182608083808181608083E0E8A5
:10063000F0E0808181608083E1E9F0E08081826088
:100640008083808181608083E0E9F0E08081816047
:100650008083E1ECF0E0808184608083808182602F
:100660008083808181608083E3ECF0E08081816021
:100670008083E0ECF0E0808182608083E2ECF0E057
:10068000808181608083EAE7F0E0808184608083FC
:1006900080818260808380818160808380818068A6
:1006A000808308951F920F920FB60F9211242F93FB
:1006B0003F934F935F936F937F938F939F93AF93EA
:1006C000BF93EF93FF9380912D0190912E01892B81
:1006D00029F0E0912D01F0912E010995FF91EF9104
:1006E000BF91AF919F918F917F916F915F914F914A
:1006F0003F912F910F900FBE0F901F9018951F9252
:100700000F920FB60F9211242F933F934F935F9345
:100710006F937F938F939F93AF93BF93EF93FF93C9
:1007200080912F0190913001892B29F0E0912F01C8
:10073000F09130010995FF91EF91BF91AF919F9199
:100740008F917F916F915F914F913F912F910F907A
:100750000FBE0F901F9018951F920F920FB60F9219
:1007600011242F933F934F935F936F937F938F93B6
:100770009F93AF93BF93EF93FF938091310190913B
:100780003201892B29F0E0913101F0913201099574
:10079000FF91EF91BF91AF919F918F917F916F9159
:1007A0005F914F913F912F910F900FBE0F901F902F
:1007B00018951F920F920FB60F9211242F933F930B
:1007C0004F935F936F937F938F939F93AF93BF9359
:1007D000EF93FF938091330190913401892B29F09D
:1007E000E0913301F09134010995FF91EF91BF91B0
:1007F000AF919F918F917F916F915F914F913F91B9
:100800002F910F900FBE0F901F9018951F920F926F
:100810000FB60F9211242F933F934F935F936F93D3
:100820007F938F939F93AF93BF93EF93FF938091A9
:10083000350190913601892B29F0E0913501F09135
:1008400036010995FF91EF91BF91AF919F918F91E3
:100850007F916F915F914F913F912F910F900FBEBC
:100860000F901F9018950E94FC020E942C070E9476
:1008700060010E946E01FDCFFC0120812E5F20836C
:1008800042E450E062E271E080E80C94D704FC019D
:1008900081819081913A59F4813209F04BC047E04F
:1008A00050E06AE171E080E00E94D70445C09132D7
:1008B00009F040C0803239F467E070E08AE191E0ED
:1008C0000E94120739C0823209F034C082818093BD
:1008D000210180911A0190911B01A0911C01B091FE
:1008E0001D01803B9440A105B10531F580912101A6
:1008F00080FD12C087E797E7909301088093000876
:100900002BE088E190E00FB6F894A8958093600002
:100910000FBE2093600010C088E10FB6F89480935A
:100920006000109260000FBEA8951092010810920E
:10093000000802C080E0089581E00895CF93DF931E
:1009400000D0CDB7DEB741E050E0BE016F5F7F4F12
:1009500082E00E94E40680917701909178010196EF
:100960008F7399272091790130917A01821793072B
:1009700061F0E0917701F0917801E95CFE4F298107
:10098000208390937801809377010F900F90DF91EF
:10099000CF91089505C02091F100FC012193CF0172
:1009A0006150C8F7289884E6809382010895FF92E9
:1009B0000F931F93CF93DF938078C42FD52FDB0144
:1009C00060E070E09EEFF92E38C09D012F5F3F4F31
:1009D000882321F0FD01D901E49102C0EC91D901F5
:1009E00000917D0110917E01209180013091810163
:1009F00002171307B4F49091E8009570E1F3909119
:100A0000E80092FD1FC0E093F10020917D0130913C
:100A10007E012F5F3F4F2F733327232B11F4F0926A
:100A2000E80020917D0130917E012F5F3F4F309390
:100A30007E0120937D016F5F7F4F6C177D0729F644
:100A40009A0102C02FEF3FEFC901DF91CF911F91B3
:100A50000F91FF900895CF93DF931F92CDB7DEB72C
:100A60001982CE0101960E943C04CE0101960E949B
:100A70004A07898190E00F90DF91CF9108951F92EE
:100A80000F920FB60F9211240F931F932F933F9342
:100A90004F935F936F937F938F939F93AF93BF9386
:100AA000EF93FF93CF93DF93CDB7DEB76297DEBFAF
:100AB000CDBF1092E9008091E80083FFFBC068E0A1
:100AC000CE010A960E94CA0482EF8093E8009A85BC
:100AD000892F807839F0803841F48091E80080FFD8
:100AE000FCCF03C08EEF8093E800892F807621F041
:100AF000803209F0DCC0B9C08B858630F1F030F46B
:100B0000882369F0853009F0CEC00EC0883009F422
:100B10008AC008F4CCC0893009F0C5C088C01092E2
:100B2000F1001092F100BFC08091E80080FFFCCF7F
:100B30008C8580688093E300B6C02D85088919896B
:100B40001092E90010927E0110927D01223081F511
:100B500010928101109280012A8B0E942B0599E04E
:100B600099832A892A8320917D0130917E01275F14
:100B70003F4F3C832B838D8381E08E831F8280E8EF
:100B800088878AEF89871092E90010927E0110927F
:100B90007D01109381010093800149E050E0BE0186
:100BA0006F5F7F4F80E00E94D7040E942B057BC0BF
:100BB0001093810100938001223229F482E290E0B7
:100BC0000E9455076EC0213069F488899989089779
:100BD00011F420937B0180917B01882389F06EE9D9
:100BE00071E016C0233009F062C08C85882359F06B
:100BF000823061F0813009F05AC064E671E008C0CB
:100C000060EB71E005C062EC71E002C06CE771E07E
:100C10006115710509F44BC0FB01449150E080E877
:100C20000E94D70440C081E08093F1003CC09370E3
:100C300009F03DC0E7ECF1E081E021E096E380932C
:100C4000E9002093EB0034913093EC009093ED0099
:100C50008F5F3196853099F78EE78093EA00109286
:100C6000EA008C8580937C011EC088899989109246
:100C7000E90010927E0110927D0190938101809392
:100C800080018E859F85009719F0029761F405C059
:100C9000CE010A960E94470404C0CE010A960E9423
:100CA0005C07882321F08EEF8093E80003C081E287
:100CB0008093EB0062960FB6F894DEBF0FBECDBFF7
:100CC000DF91CF91FF91EF91BF91AF919F918F9164
:100CD0007F916F915F914F913F912F911F910F9154
:100CE0000F900FBE0F901F9018959FB7F8948770C4
:100CF0008093E9008091F2009FBF08958093E900FE
:100D00008091F200882319F08AE38093E800089527
:100D10001F920F920FB60F9211242F933F934F9370
:100D20005F936F937F938F939F93AF93BF93EF9353
:100D3000FF938091E1001092E10083FF0FC01092B9
:100D4000E90091E09093EB001092EC0092E3909315
:100D5000ED0010927C0198E09093F00082FF23C098
:100D600083E00E947E0602C00E949E0482E00E94F0
:100D700075068111F9CF80917F01882341F0809120
:100D80007F01815080937F01811101C05D9A809124
:100D90008201882341F080918201815080938201F9
:100DA000811101C0289AFF91EF91BF91AF919F915E
:100DB0008F917F916F915F914F913F912F910F9004
:100DC0000FBE0F901F90189590917C01992331F1DF
:100DD00057FD24C02FB7F89487708093E900809165
:100DE000F20090E0841795070CF4AC01FB01640F4E
:100DF00084E606C02898809382019091F100919337
:100E00006E13F8CF4115510539F08091F200811130
:100E100003C08BE68093E8002FBF02C04FEF5FEF67
:100E2000CA0108951F93CF93DF931F92CDB7DEB70A
:100E3000162F2091E80022FFFCCF612F79830E94BA
:100E4000CA048BEF8093E800812F7981972F0F9050
:100E5000DF91CF911F91089510927C0181E08093E2
:100E6000D70080EA8093D80082E189BD09B400FEF2
:100E7000FDCF61E070E080E090E00E94D60280E962
:100E80008093D8008CE08093E2001092E000559AA5
:100E9000209A0895FC0120812F5F208349E150E0D2
:100EA0006BEC71E080E80C94D70445E650E064EE0A
:100EB00071E080E80C94D704FC0191818081813A33
:100EC00031F481E0913091F0933091F010C0813293
:100ED00071F49B3021F482818093230105C09A3004
:100EE00031F482818093220181E00895089580E0A9
:100EF0000895991B79E004C0991F961708F0961B76
:100F0000881F7A95C9F78095089597FB072E16F4E8
:100F1000009407D077FD09D00E94990707FC05D0FF
:100F20003EF4909581959F4F0895709561957F4F00
:100F30000895AA1BBB1B51E107C0AA1FBB1FA61720
:100F4000B70710F0A61BB70B881F991F5A95A9F772
:100F500080959095BC01CD010895F999FECF92BD81
:100F600081BDF89A992780B50895262FF999FECF6B
:100F70001FBA92BD81BD20BD0FB6F894FA9AF99AB6
:0A0F80000FBE01960895F894FFCF0C
:100F8A00FC60DAF266B6BEE0FEF609000800070069
:100F9A000A000B000C000D00060000E10000000032
:040FAA000000010141
:00000001FF
