:100000000C9425010C943E030C946B030C94980300
:100010000C94C5030C9442010C9442010C94F2031D
:100020000C9442010C9442010C9474060C942B0520
:100030000C9442010C9442010C9442010C94420134
:100040000C9442010C9442010C9442010C94420124
:100050000C9442010C9442010C9442010C944E0207
:100060000C9442010C9442010C9442010C94420104
:100070000C9442010C9442010C9442010C944201F4
:100080000C9442010C9442010C9442010C944201E4
:100090000C9442010C9442010C9442010C944201D4
:1000A0000C9442010C9442010C94420100000002A5
:1000B00000080E0000030401000B00000000000017
:1000C00000000000000000000000040802011040D1
:1000D00080401020408040800802040180402010B1
:1000E00002011080102040400404040404030405AD
:1000F00002020202040302020202060606060606C5
:1001000004040202020400000000250028002B0065
:100110002E00310000000000240027002A002D00DE
:100120003000080B00020202010009040000010275
:10013000020000052400100105240101010424022D
:10014000060524060001070581031000400904018B
:1001500000020A00000007050202400000070583B4
:10016000024000001803410072006400750069003D
:100170006E006F0020004C004C0043002203410041
:1001800072006400750069006E006F0020004C0072
:1001900065006F006E006100720064006F00120164
:1001A00000020200004041233680000101020001EC
:1001B00012010002000000404123368000010102CC
:1001C00000010403090400C18081C1090402000187
:1001D00003000000092101010001226500070584D8
:1001E0000340000105010902A1010901A1008501E7
:1001F00005091901290315002501950375018102DF
:10020000950175058103050109300931093815810A
:10021000257F750895038106C0C005010906A10167
:100220008502050719E029E71500250175019508E4
:1002300081029501750881039506750815002565ED
:100240000507190029658100C00011241FBECFEFEA
:10025000DAE0DEBFCDBF11E0A0E0B1E0EEE1FFE00B
:1002600002C005900D92AC30B107D9F711E0ACE0B7
:10027000B1E001C01D92AC36B107E1F70E941F0446
:100280000C948D070C94000061E080910C010E9499
:10029000DF0161E0809100010C94DF0161E08111D8
:1002A00001C060E080910C010E94170261E0809122
:1002B00000010E94170260E0809100010C94170277
:1002C000EF92FF920F931F93CF93DF938C01EB017B
:1002D00092E0E92EF12C09C0C801B7010E94650720
:1002E0000E944E012197159507952097A9F7DF9158
:1002F000CF911F910F91FF90EF900895C0E0D0E053
:100300000FEF10E068E070E0CE010E94600164EF42
:1003100071E080E090E00E94C202CE010196B80137
:100320000E946507EC01EECF883059F160F482300D
:1003300021F120F4813009F041C01CC0833081F0EC
:100340008430E1F511C08B3051F128F48930E9F0A7
:100350008A30A1F51EC08C3031F18E3079F529C07C
:10036000809180008F7703C0809180008F7D809383
:100370008000089584B58F7702C084B58F7D84BDD9
:100380000895809190008F7707C0809190008F7DB5
:1003900003C080919000877F8093900008958091A2
:1003A000C0008F7703C08091C0008F7D8093C00014
:1003B00008958091C200877F8093C2000895CF93F3
:1003C000DF9390E0FC01E653FF4F4491FC01E851BC
:1003D000FF4F8491882341F190E0880F991FFC0121
:1003E000EC5EFE4F25913491D9018A5F9E4FFC014E
:1003F00085919491C82FD92F9FB7F8948C91611152
:1004000006C0409584238C938881842308C0623081
:1004100041F4242F209582238C938881842B888318
:1004200002C0842B8C939FBFDF91CF9108950F93CF
:100430001F93CF93DF931F92CDB7DEB7282F30E005
:10044000F901E455FF4F8491F901E653FF4F1491F0
:10045000F901E851FF4F04910023D1F0882321F0E6
:1004600069830E9494016981E02FF0E0EE0FFF1F85
:10047000EA5FFE4F85919491DC019FB7F8948C91CF
:10048000611103C01095812301C0812B8C939FBF04
:100490000F90DF91CF911F910F9108951F920F92AE
:1004A0000FB60F9211242F933F938F939F93AF9387
:1004B000BF9380910D0190910E01A0910F01B09119
:1004C000100130911501232F2D5F2D3720F4019657
:1004D000A11DB11D05C0232F2A570296A11DB11DD4
:1004E0002093150180930D0190930E01A0930F01AD
:1004F000B09310018091110190911201A09113010C
:10050000B09114010196A11DB11D8093110190932A
:100510001201A0931301B0931401BF91AF919F9169
:100520008F913F912F910F900FBE0F901F901895B4
:100530000F931F939FB7F89400911101109112012E
:10054000209113013091140186B5A89B06C08F3FFE
:1005500021F00F5F1F4F2F4F3F4F9FBF322F212F93
:10056000102F0027080F111D211D311D42E0000F23
:10057000111F221F331F4A95D1F7B801C9011F91DE
:100580000F910895CF92DF92EF92FF92CF93DF9376
:100590006B017C010E949802EB010EC00E94980240
:1005A0006C1B7D0B683E734038F081E0C81AD1089F
:1005B000E108F108C851DC4FC114D104E104F10491
:1005C00069F7DF91CF91FF90EF90DF90CF90089582
:1005D000789484B5826084BD84B5816084BD85B51E
:1005E000826085BD85B5816085BDEEE6F0E08081E5
:1005F00081608083E1E8F0E0108280818260808306
:10060000808181608083E0E8F0E080818160808388
:10061000E1E9F0E080818260808380818160808375
:10062000E0E9F0E0808181608083E1ECF0E08081AE
:100630008460808380818260808380818160808308
:10064000E3ECF0E0808181608083E0ECF0E0808189
:1006500082608083E2ECF0E0808181608083EAE761
:10066000F0E08081846080838081826080838081EB
:100670008160808380818068808308951F920F92BB
:100680000FB60F9211242F933F934F935F936F9365
:100690007F938F939F93AF93BF93EF93FF9380913B
:1006A000160190911701892B29F0E0911601F09124
:1006B00017010995FF91EF91BF91AF919F918F9194
:1006C0007F916F915F914F913F912F910F900FBE4E
:1006D0000F901F9018951F920F920FB60F92112432
:1006E0002F933F934F935F936F937F938F939F933A
:1006F000AF93BF93EF93FF938091180190911901ED
:10070000892B29F0E0911801F09119010995FF91C9
:10071000EF91BF91AF919F918F917F916F915F9179
:100720004F913F912F910F900FBE0F901F901895F2
:100730001F920F920FB60F9211242F933F934F9356
:100740005F936F937F938F939F93AF93BF93EF9339
:10075000FF9380911A0190911B01892B29F0E09160
:100760001A01F0911B010995FF91EF91BF91AF9193
:100770009F918F917F916F915F914F913F912F91B9
:100780000F900FBE0F901F9018951F920F920FB6EB
:100790000F9211242F933F934F935F936F937F9307
:1007A0008F939F93AF93BF93EF93FF9380911C011F
:1007B00090911D01892B29F0E0911C01F0911D0100
:1007C0000995FF91EF91BF91AF919F918F917F918B
:1007D0006F915F914F913F912F910F900FBE0F90AE
:1007E0001F9018951F920F920FB60F9211242F93FE
:1007F0003F934F935F936F937F938F939F93AF93A9
:10080000BF93EF93FF9380911E0190911F01892B5D
:1008100029F0E0911E01F0911F010995FF91EF91E0
:10082000BF91AF919F918F917F916F915F914F9108
:100830003F912F910F900FBE0F901F9018950E941F
:10084000E8020E9418070E9444010E947E01FDCF29
:10085000FC0120812E5F208342E450E062E271E0DF
:1008600080E80C94C304FC0181819081913A59F491
:10087000813209F04BC047E050E061E071E080E078
:100880000E94C30445C0913209F040C0803239F45F
:1008900067E070E081E091E00E94FE0639C082329C
:1008A00009F034C082818093080180910101909108
:1008B0000201A0910301B0910401803B9440A10585
:1008C000B10531F58091080180FD12C087E797E7F7
:1008D00090930108809300082BE088E190E00FB628
:1008E000F894A895809360000FBE2093600010C01C
:1008F00088E10FB6F89480936000109260000FBEFC
:10090000A895109201081092000802C080E0089596
:1009100081E00895CF93DF9300D0CDB7DEB741E0FB
:1009200050E0BE016F5F7F4F82E00E94D006809151
:1009300060019091610101968F7399272091620166
:10094000309163018217930761F0E0916001F091AB
:100950006101E05EFE4F29812083909361018093C5
:1009600060010F900F90DF91CF91089505C0209105
:10097000F100FC012193CF016150C8F7289884E66B
:1009800080936B010895FF920F931F93CF93DF9392
:100990008078C42FD52FDB0160E070E09EEFF92E48
:1009A00038C09D012F5F3F4F882321F0FD01D90101
:1009B000E49102C0EC91D9010091660110916701A8
:1009C0002091690130916A0102171307B4F49091E4
:1009D000E8009570E1F39091E80092FD1FC0E0936C
:1009E000F10020916601309167012F5F3F4F2F7317
:1009F0003327232B11F4F092E80020916601309107
:100A000067012F5F3F4F30936701209366016F5F4F
:100A10007F4F6C177D0729F69A0102C02FEF3FEF39
:100A2000C901DF91CF911F910F91FF900895CF934E
:100A3000DF931F92CDB7DEB71982CE0101960E94D7
:100A40002804CE0101960E943607898190E00F901C
:100A5000DF91CF9108951F920F920FB60F9211243C
:100A60000F931F932F933F934F935F936F937F93B6
:100A70008F939F93AF93BF93EF93FF93CF93DF93A6
:100A8000CDB7DEB76297DEBFCDBF1092E90080918F
:100A9000E80083FFFBC068E0CE010A960E94B6041E
:100AA00082EF8093E8009A85892F807839F080382A
:100AB00041F48091E80080FFFCCF03C08EEF80936B
:100AC000E800892F807621F0803209F0DCC0B9C0BF
:100AD0008B858630F1F030F4882369F0853009F099
:100AE000CEC00EC0883009F48AC008F4CCC089306A
:100AF00009F0C5C088C01092F1001092F100BFC08B
:100B00008091E80080FFFCCF8C8580688093E300B3
:100B1000B6C02D85088919891092E90010926701E5
:100B200010926601223081F510926A0110926901DB
:100B30002A8B0E94170599E099832A892A8320919C
:100B4000660130916701275F3F4F3C832B838D8384
:100B500081E08E831F8280E888878AEF89871092E0
:100B6000E900109267011092660110936A010093E8
:100B7000690149E050E0BE016F5F7F4F80E00E9455
:100B8000C3040E9417057BC010936A01009369019A
:100B9000223229F482E290E00E9441076EC02130A7
:100BA00069F488899989089711F4209364018091E8
:100BB0006401882389F06EE971E016C0233009F0E2
:100BC00062C08C85882359F0823061F0813009F051
:100BD0005AC064E671E008C060EB71E005C062ECE9
:100BE00071E002C06CE771E06115710509F44BC05A
:100BF000FB01449150E080E80E94C30440C081E0C2
:100C00008093F1003CC0937009F03DC0E7ECF1E047
:100C100081E021E096E38093E9002093EB0034919A
:100C20003093EC009093ED008F5F3196853099F70B
:100C30008EE78093EA001092EA008C85809365012C
:100C40001EC0888999891092E9001092670110925C
:100C5000660190936A01809369018E859F85009754
:100C600019F0029761F405C0CE010A960E94330480
:100C700004C0CE010A960E944807882321F08EEF17
:100C80008093E80003C081E28093EB0062960FB688
:100C9000F894DEBF0FBECDBFDF91CF91FF91EF91F2
:100CA000BF91AF919F918F917F916F915F914F9184
:100CB0003F912F911F910F910F900FBE0F901F909A
:100CC00018959FB7F89487708093E9008091F2009F
:100CD0009FBF08958093E9008091F200882319F066
:100CE0008AE38093E80008951F920F920FB60F9247
:100CF00011242F933F934F935F936F937F938F9321
:100D00009F93AF93BF93EF93FF938091E100109275
:100D1000E10083FF0FC01092E90091E09093EB0097
:100D20001092EC0092E39093ED001092650198E030
:100D30009093F00082FF23C083E00E946A0602C005
:100D40000E948A0482E00E9461068111F9CF80919D
:100D50006801882341F08091680181508093680187
:100D6000811101C05D9A80916B01882341F08091CF
:100D70006B01815080936B01811101C0289AFF9112
:100D8000EF91BF91AF919F918F917F916F915F9103
:100D90004F913F912F910F900FBE0F901F9018957C
:100DA00090916501992331F157FD24C02FB7F89434
:100DB00087708093E9008091F20090E08417950796
:100DC0000CF4AC01FB01640F84E606C02898809304
:100DD0006B019091F10091936E13F8CF411551057D
:100DE00039F08091F200811103C08BE68093E80016
:100DF0002FBF02C04FEF5FEFCA0108951F93CF933B
:100E0000DF931F92CDB7DEB7162F2091E80022FFA7
:100E1000FCCF612F79830E94B6048BEF8093E800AA
:100E2000812F7981972F0F90DF91CF911F91089596
:100E30001092650181E08093D70080EA8093D8000A
:100E400082E189BD09B400FEFDCF61E070E080E081
:100E500090E00E94C20280E98093D8008CE08093E9
:100E6000E2001092E000559A209A0895FC0120813A
:100E70002F5F208349E150E06BEC71E080E80C9437
:100E8000C30445E650E064EE71E080E80C94C304CE
:100E9000FC0191818081813A31F481E0913091F0BF
:100EA000933091F010C0813271F49B3021F4828133
:100EB00080930A0105C09A3031F482818093090140
:100EC00081E00895089580E0089597FB072E16F4B9
:100ED000009407D077FD09D00E94790707FC05D060
:100EE0003EF4909581959F4F0895709561957F4F41
:100EF0000895AA1BBB1B51E107C0AA1FBB1FA61761
:100F0000B70710F0A61BB70B881F991F5A95A9F7B2
:0E0F100080959095BC01CD010895F894FFCF17
:0C0F1E000100E1000000000000010100E3
:00000001FF
